:020000020000FC
:020000002AC014
:1000540057C404E00EBF0FEF0DBF0F93BF93AF93D0
:10006400DF93CF93FF93EF9300E0F4E0E0E0B1E09F
:10007400A0E031970D93E9F7EF91FF91CF91DF91D4
:10008400AF91BF910F9107E004B90AE307B900EEFD
:100094000AB900E005B901E408B90CE10BB9CED402
:1000A40000E000930201F1E0E0E10783F1E0E8E120
:1000B4000783F1E0E0E207830F930FB70F9300E0AB
:1000C4000FBF1F935F9310E001E0232F01BD12BD0A
:1000D4000E94FB05322F5F911F910F910FBF0F916B
:1000E4003F3FA1F435E00F930FB70F9300E00FBF2C
:1000F4001F935F9310E001E0232F01BD12BD0E9406
:10010400F5055F911F910F910FBF0F91309304017B
:1001140030E00F930FB70F9300E00FBF1F935F936F
:1001240010E002E0232F01BD12BD0E94FB05322F17
:100134005F911F910F910FBF0F913F3FA1F430E2E8
:100144000F930FB70F9300E00FBF1F935F9310E05F
:1001540002E0232F01BD12BD0E94F5055F911F919E
:100164000F910FBF0F9130930A0178940F930FB73B
:100174000F9300E00FBF1F932F933F93FF93EF93D1
:1001840011E021E0F8E0E2E90E94EA05EF91FF9135
:100194003F912F911F910F910FBF0F91BF93AF9379
:1001A400DF93CF93FF93EF93B4E0AFEF0E94750515
:1001B400EF91FF91CF91DF91AF91BF914B99D6CF42
:1001C400BF93AF93DF93CF93FF93EF93BCEFA0E084
:1001D4000E947505EF91FF91CF91DF91AF91BF918F
:1001E4004B99C4CF24D40F930FB70F9300E00FBFE4
:1001F4001F932F933F93FF93EF9311E026E0F8E0D2
:10020400EAEA0E94EA05EF91FF913F912F911F9135
:100214000F910FBF0F91BF93AF93DF93CF93FF93D2
:10022400EF93BFEFAFEF0E947505EF91FF91CF9170
:10023400DF91AF91BF910F930FB70F9300E00FBF02
:100244001F932F933F93FF93EF9311E028E0F8E07F
:10025400EAEA0E94EA05EF91FF913F912F911F91E5
:100264000F910FBF0F91BF93AF93DF93CF93FF9382
:10027400EF93BFEFAFEF0E947505EF91FF91CF9120
:10028400DF91AF91BF910F930FB70F9300E00FBFB2
:100294001F932F933F93FF93EF9311E02AE0F8E02D
:1002A400EAEA0E94EA05EF91FF913F912F911F9195
:1002B4000F910FBF0F91BF93AF93DF93CF93FF9332
:1002C400EF93BFEFAFEF0E947505EF91FF91CF91D0
:1002D400DF91AF91BF910F930FB70F9300E00FBF62
:1002E4001F932F933F93FF93EF9311E02CE0F8E0DB
:1002F400EAEA0E94EA05EF91FF913F912F911F9145
:100304000F910FBF0F91BF93AF93DF93CF93FF93E1
:10031400EF93BFEFAFEF0E947505EF91FF91CF917F
:10032400DF91AF91BF9101E00093000100C00F93F2
:1003340001E034D40F910F930FB70F9300E00FBF78
:100344001F932F933F93FF93EF9311E021E0F8E085
:10035400EAE70E94EA05EF91FF913F912F911F91E7
:100364000F910FBF0F910000000000000000BF9329
:10037400AF93DF93CF93FF93EF93B4E0AFEF0E947B
:100384007505EF91FF91CF91DF91AF91BF910E94DD
:1003940035084A9B86D04C9BA5D000000000000085
:1003A4004B9B13D1E0CF0F9301E0F8D30F910F9340
:1003B4000FB70F9300E00FBF1F932F933F93FF934B
:1003C400EF9311E021E0F8E0E4EE0E94EA05EF91FA
:1003D400FF913F912F911F910F910FBF0F910E9499
:1003E400E3070E9400060E9489060F930FB70F933C
:1003F40000E00FBF1F932F93FF93EF9312E02BE0C6
:10040400F1E0E5E00E94DF05EF91FF912F911F914C
:100414000F910FBF0F914A9BFDD04B9B2AD14C9B50
:1004240055D1DFCF0F9301E0B9D30F910F930FB7DD
:100434000F9300E00FBF1F932F933F93FF93EF930E
:1004440011E021E0F8E0E2EF0E94EA05EF91FF916C
:100454003F912F911F910F910FBF0F910E940C0894
:100464000E9400060E9489060F930FB70F9300E0C5
:100474000FBF1F932F93FF93EF9312E02BE0F1E054
:10048400EBE00E94DF05EF91FF912F911F910F91F7
:100494000FBF0F914A9B4BD14B9B78D14C9BA3D15F
:1004A400DFCFBF93AF93DF93CF93FF93EF93B0E08E
:1004B400AFEF0E947505EF91FF91CF91DF91AF915E
:1004C400BF910F934A990CC04A9BFECF0000009144
:1004D4000001033009F400E0039525D000930001E6
:1004E4000F910895BF93AF93DF93CF93FF93EF934F
:1004F400B0E0AFEF0E947505EF91FF91CF91DF91CE
:10050400AF91BF910F934C990CC04C9BFECF000050
:1005140000910001013009F404E00A9504D000932D
:1005240000010F910895013029F00230E1F0033009
:1005340099F14AC00F930FB70F9300E00FBF1F93B9
:100544002F933F93FF93EF9311E021E0F8E0EAE764
:100554000E94EA05EF91FF913F912F911F910F9116
:100564000FBF0F9131C00F930FB70F9300E00FBF70
:100574001F932F933F93FF93EF9311E021E0F8E053
:10058400E2E80E94EA05EF91FF913F912F911F91BC
:100594000F910FBF0F9118C00F930FB70F9300E087
:1005A4000FBF1F932F933F93FF93EF9311E021E02D
:1005B400F8E0EAE80E94EA05EF91FF913F912F915C
:1005C4001F910F910FBF0F910895F894BF93AF93AC
:1005D400DF93CF93FF93EF93BCEFA0E00E947505E8
:1005E400EF91FF91CF91DF91AF91BF9178944B99A7
:1005F4000895BF93AF93DF93CF93FF93EF93BCEF33
:10060400A0E00E947505EF91FF91CF91DF91AF912A
:10061400BF91C9CEBF93AF93DF93CF93FF93EF9373
:10062400B0E0AFEF0E947505EF91FF91CF91DF919C
:10063400AF91BF914A991CC04A9BFECF0F930FB74D
:100644000F9300E00FBF1F93009104011FE0039577
:1006540010231A3011F4007F005F003A09F400E01F
:10066400009304010E94E3071F910F910FBF0F91A4
:100674000895BF93AF93DF93CF93FF93EF93B0E0CD
:10068400AFEF0E947505EF91FF91CF91DF91AF918C
:10069400BF914B991AC04B9BFECF3F9330910401FD
:1006A4000F930FB70F9300E00FBF1F935F9310E0FA
:1006B40001E0232F01BD12BD0E94F5055F911F913A
:1006C4000F910FBF0F913F91ADCE0895BF93AF939C
:1006D400DF93CF93FF93EF93B0E0AFEF0E947505E4
:1006E400EF91FF91CF91DF91AF91BF914C991EC0D3
:1006F4004C9BFECF0F930FB70F9300E00FBF1F93D8
:10070400009104011FE0003011F409E907C010232F
:10071400103019F40051075F01C00A9500930401D9
:100724000E94E3071F910F910FBF0F910895BF938C
:10073400AF93DF93CF93FF93EF93B0E0AFEF0E94BB
:100744007505EF91FF91CF91DF91AF91BF914A99D8
:100754001CC04A9BFECF0F930FB70F9300E00FBF4F
:100764001F9300910A011FE0039510231A3011F41E
:10077400007F005F003A09F400E000930A010E9440
:100784000C081F910F910FBF0F910895BF93AF9362
:10079400DF93CF93FF93EF93B0E0AFEF0E94750523
:1007A400EF91FF91CF91DF91AF91BF914B991AC017
:1007B4004B9BFECF3F9330910A010F930FB70F93DA
:1007C40000E00FBF1F935F9310E002E0232F01BDF1
:1007D40012BD0E94F5055F911F910F910FBF0F91FC
:1007E4003F91A5CD0895BF93AF93DF93CF93FF932C
:1007F400EF93B0E0AFEF0E947505EF91FF91CF91B9
:10080400DF91AF91BF914C991DC04C9BFECF0F93CC
:100814000FB70F9300E00FBF1F9300910A011FE071
:10082400003011F409E907C01023103019F4005105
:10083400075F01C00A9500930A01ECD31F910F9141
:100844000FBF0F910895F894BF93AF93DF93CF93A5
:10085400FF93EF93BCEFA0E00E947505EF91FF9129
:10086400CF91DF91AF91BF9178944B99089501E0B6
:1008740095D181E07BCC4C3120416D7000004C322D
:1008840020416D7000004C3320416D7000005354C2
:100894004152540053544152543AFFFFFFFFFFFFAB
:1008A400FFFFFFFFFF00FFFF0000FFFFFFFFFFFF51
:1008B400FFFFFFFFFFFFFFFFFFFF00004355525202
:1008C400454E54530000554E42414C414E43452041
:1008D4004F460000504841534500425245414B00A9
:1008E400416D7020536574706F696E7400005068B8
:1008F400427265616B20536574706F696E74000099
:100904000FB70F9300E00FBFBF93AF93DF93CF9365
:10091400FF93EF934F935F936F938F939F93909174
:10092400020180910301C0917800D0917900509127
:100934007C005770523029F0563079F05730C9F0A6
:1009440034C0F1E0E0E1B1E0A8E250917C00587FCE
:10095400566050937C00552717C0F1E0E8E1B1E000
:10096400ACE850917C00587F576050937C00552729
:100974000BC0F1E0E0E2B1E0A0EF50917C00587FC1
:10098400526050937C005527D193C19325D09F93F7
:100994008F93903019F4843609F403C08F919F919A
:1009A40004C08F919F9190E080E090930201809326
:1009B400030140917A00406440937A009F918F91A3
:1009C4006F915F914F91EF91FF91CF91DF91AF9133
:1009D400BF910F910FBF18956FEF6395C756D04025
:1009E400E0F7C959DF4F49E05FEF5395CA50D04053
:1009F4005413D8F75F936F93660F660F660F660FF5
:100A0400652BA80FB91F6C9361936F915F91505D33
:100A1400605D61934CE24193519341E4419362E000
:100A240050917C005770561308950196089502E47E
:100A340000937C000FEC00937A000895BF93AF936A
:100A44000F93BF93AF93DF93CF93FF93EF93BCE9DF
:100A5400A0E40E947505EF91FF91CF91DF91AF91D2
:100A6400BF9103E39BD0BF93AF93DF93CF93FF93E7
:100A7400EF93BCE9A0E40E947505EF91FF91CF913B
:100A8400DF91AF91BF9102E389D008E287D0BF9391
:100A9400AF93DF93CF93FF93EF93BCE9A0E40E945D
:100AA4007505EF91FF91CF91DF91AF91BF9108E070
:100AB40075D001E073D0BF93AF93DF93CF93FF93CF
:100AC400EF93BCE9A0E40E947505EF91FF91CF91EB
:100AD400DF91AF91BF9106E061D00CE05FD00F9140
:100AE400AF91BF9108951197F1F708950F93007F87
:100AF4001BB125B11F712E7F2260302F30712295DA
:100B0400232B102B2295107E2770299A1BB925B907
:100B1400BF93AF93DF93CF93FF93EF93BFE1A0E431
:100B24000E947505EF91FF91CF91DF91AF91BF9135
:100B340029980F910295007F1BB125B11F712E7F5B
:100B44002260302F30712295232B102B2295107E9A
:100B54002770299A1BB925B9BF93AF93DF93CF931D
:100B6400FF93EF93BFE1A0E40E947505EF91FF911D
:100B7400CF91DF91AF91BF912998BF93AF93DF934A
:100B8400CF93FF93EF93BFE1A0E40E947505EF912B
:100B9400FF91CF91DF91AF91BF9108952A98A6CF8D
:100BA40008952A9AA3CF08950F93215811FD205C2C
:100BB400022FF4DF0F91F5DF08950191002309F46A
:100BC40008951F932F93F0DF2F911F912395F5CF55
:100BD4000591002309F408951F932F93E5DF2F91C6
:100BE4001F912395F5CFF999FECF20BDFA9AF99A72
:100BF4000895F999FECFF89A20B508950F930FB789
:100C04000F9300E00FBF1F932F933F93F1E0E0E1B8
:100C14000281F1E0E8E11281F1E0E0E22281309129
:100C24000A01031708F407C0131708F404C02317B4
:100C340008F401C065C00F9301E0B0DF0F910F937A
:100C44000FB70F9300E00FBF1F932F933F93FF93B2
:100C5400EF9311E021E0F8E0E8ED0E94EA05EF915E
:100C6400FF913F912F911F910F910FBF0F910F9300
:100C74000FB70F9300E00FBF1F932F933F93FF9382
:100C8400EF9312E021E0F8E0EEED0E94EA05EF9127
:100C9400FF913F912F911F910F910FBF0F91BF9320
:100CA400AF93DF93CF93FF93EF93BFEFAFEF0E9428
:100CB4007505EF91FF91CF91DF91AF91BF91BF93F4
:100CC400AF93DF93CF93FF93EF93BFEFAFEF0E9408
:100CD4007505EF91FF91CF91DF91AF91BF91BF93D4
:100CE400AF93DF93CF93FF93EF93BFEFAFEF0E94E8
:100CF4007505EF91FF91CF91DF91AF91BF919BCF9C
:100D04003F912F911F910F910FBF0F9108950F9352
:100D14000FB70F9300E00FBF0F931F932F933F93D1
:100D24004F935F9350E0F1E0E0E10281500FF1E076
:100D3400E8E11281510FF1E0E0E22281520F40E03C
:100D4400549F30910401402F411B0AF441953417FC
:100D540030F40091010100600093010119C0412F9A
:100D6400421B0AF44195341730F4009101010160EB
:100D7400009301010DC0412F421B0AF44195341721
:100D840030F40091010102600093010101C0B9C077
:100D94000F9301E003DF0F910F930FB70F9300E060
:100DA4000FBF1F932F933F93FF93EF9311E021E025
:100DB400F8E0EAEC0E94EA05EF91FF913F912F9150
:100DC4001F910F910FBF0F910F930FB70F9300E077
:100DD4000FBF1F932F933F93FF93EF9312E021E0F4
:100DE400F8E0E0EC0E94EA05EF91FF913F912F912A
:100DF4001F910F910FBF0F91BF93AF93DF93CF93C9
:100E0400FF93EF93BFEFAFEF0E947505EF91FF9152
:100E1400CF91DF91AF91BF91BF93AF93DF93CF9306
:100E2400FF93EF93BFEFAFEF0E947505EF91FF9132
:100E3400CF91DF91AF91BF91BF93AF93DF93CF93E6
:100E4400FF93EF93BFEFAFEF0E947505EF91FF9112
:100E5400CF91DF91AF91BF914B999ACFBF93AF934D
:100E6400DF93CF93FF93EF93BFEFAFEF0E9475052E
:100E7400EF91FF91CF91DF91AF91BF91BF93AF936A
:100E8400DF93CF93FF93EF93BFEFAFEF0E9475050E
:100E9400EF91FF91CF91DF91AF91BF91BF93AF934A
:100EA400DF93CF93FF93EF93BFEFAFEF0E947505EE
:100EB400EF91FF91CF91DF91AF91BF914B9968CFA3
:100EC4007894BF93AF93DF93CF93FF93EF93BFEFE8
:100ED400AFEF0E947505EF91FF91CF91DF91AF9134
:100EE400BF91F8940F9301E059DE0F915F914F91F8
:100EF4003F912F911F910F910F910FBF0F910C9460
:100F040000005F914F913F912F911F910F910F918D
:100F14000FBF0F9108950F931F932F933F934F93F8
:100F24005F9310910201009103010000A00FB11F13
:100F34000C91B2E0A4E52227332744275527102F2C
:100F4400107F0F70169516951695169540E1000FB3
:100F54000A3040F00A500894221F331F4A9540304B
:100F640019F0F5CF8894F8CF0000103051F010FD3F
:100F740051E011FD52E012FD53E013FD54E0452F02
:100F840009C02050304059F02695379517955A9549
:100F9400D9F705C0269537951795E0F75A95515816
:100FA4008894579517953795279500E05D931D9381
:100FB4003D932D935F914F913F912F911F910F91ED
:100FC40008950FB70F9300E00FBFBF93AF93DF9364
:100FD400CF93FF93EF930F931F93F1E0E5E000911C
:100FE400040110EF10230F701295005D105D119332
:100FF4001CE21193019311E4119310E011931F91DA
:101004000F91EF91FF91CF91DF91AF91BF910F912C
:101014000FBF08950FB70F9300E00FBFBF93AF93B7
:10102400DF93CF93FF93EF930F931F93F1E0EBE0E4
:1010340000910A0110EF10230F701295005D105DEE
:1010440011931CE21193019311E4119310E0119395
:101054001F910F91EF91FF91CF91DF91AF91BF91CC
:101064000F910FBF08950FB70F9300E00FBFBF9309
:10107400AF93DF93CF93FF93EF930F93009100010E
:10108400013029F00230D1F0033079F144C00F93DC
:101094000FB70F9300E00FBF1F932F93FF93EF93AE
:1010A40011E02DE0F1E0E3E10E94DF05EF91FF9113
:1010B4002F911F910F910FBF0F912DC00F930FB759
:1010C4000F9300E00FBF1F932F93FF93EF9311E053
:1010D4002DE0F1E0EBE10E94DF05EF91FF912F910C
:1010E4001F910F910FBF0F9116C00F930FB70F935E
:1010F40000E00FBF1F932F93FF93EF9311E02DE0B8
:10110400F1E0E3E20E94DF05EF91FF912F911F913F
:101114000F910FBF0F910F91EF91FF91CF91DF913D
:0A112400AF91BF910F910FBF089526
:00000001FF
